:020000040000FA
:04000000C1EF08F054
:08000800056ED8CF06F0E0CF31
:1000100007F00001E9CF0DF0EACF08F0E1CF09F0D9
:10002000E2CF0AF0D9CF0BF0DACF0CF0F3CF14F017
:10003000F4CF15F0FACF16F000C00FF001C010F0A9
:1000400002C011F003C012F004C013F09DA22CEF07
:1000500000F09EB271EF06F0A0AA32EF00F0A1BA54
:100060003CEF06F00FC000F010C001F011C002F02C
:1000700012C003F013C004F00E8E0DC0E9FF08C0DB
:10008000EAFF09C0E1FF0AC0E2FF0BC0D9FF0CC0C4
:10009000DAFF14C0F3FF15C0F4FF16C0FAFF0550D5
:1000A00007C0E0FF06C0D8FF1000F76ABA0FF66E6F
:1000B000000EF7220900F5501200040300000000B2
:1000C00000000000000000000000F76ADA0FF66E82
:1000D000000EF7220900F550120004000300000092
:1000E00000000000000000000000F76AFA0FF66E42
:1000F000000EF7220900F5501200400040000000F9
:1001000000000000000000000000000000000000EF
:10011000000000000000000000000DAE03D0F2CF90
:100120000EF0F29EF76A3C0FF66E010EF722090000
:10013000F5500DAE02D00EBEF28E1200400000004F
:10014000400000000000000000000000000000006F
:10015000000000000000000000000000F76A6C0FC3
:10016000F66E010EF7220900F55012000600FF0995
:1001700001A101190129081580257F7508950881BD
:100180000219012908750895089102C0F76A9C0FA9
:10019000F66E010EF7220900F55012000000F76A12
:1001A000AE0FF66E010EF7220900F5501200200086
:1001B000F76AC00FF66E010EF7220900F550120023
:1001C00009022900010100C06409040000020300C3
:1001D0000000092100010001222000070581030819
:1001E00000010705020308000100F76AFA0FF66E26
:1001F000010EF7220900F55012000100F76A0C0FFA
:10020000F66E020EF7220900F550120012011001DD
:100210000000004002283919000101020001F76ABC
:100220002E0FF66E020EF7220900F550120004039D
:1002300009040803480055005400320348007500C3
:100240006700650042007200610069006E002000D6
:1002500041007300730069007300740061006E0058
:1002600074002000760031002E0030006D926994F9
:10027000689447EF06F06A6A689250EF06F0956B53
:1002800095530AE1036A9551270FE96E000E03208A
:10029000EA6EEF6A952BF4D71A6A010E1B6E196A83
:1002A000000C010E9E6F9E510F080EE3700E9E25EE
:1002B000016E0F0E036ED8B0032A01C0E9FF03C020
:1002C000EAFFEF6A9E2BEFD71E6A1D6A000C400EF4
:1002D0000401016F050E036F026B880E006F046B43
:1002E000050E076F400E066F0001000C6A6A686A0F
:1002F0009F0E6B6E390E696E6E6AC1DFD2DF160E0D
:10030000706E68A602D06896FCD76D98E0DF030E89
:100310001F6E56EF06F0698468986D825CEF06F0F8
:10032000689C62EF06F070A002D0D1DF7090689AEE
:1003300068EF06F099C020F0000CFF0E206E000C54
:10034000976B26523EE097513F083BE31C50FC0F51
:100350002BE2040FEBEF01F0036A2550F2CF99F086
:10036000F29E26DF99BFF28E986F1ED0036A255049
:10037000F2CF99F0F29EF2DE99BFF28E986F14D010
:10038000036A2550F2CF99F0F29E49DF99BFF28EB1
:10039000986F0AD0036A2550F2CF99F0F29E2EDFB3
:1003A00099BFF28E986F00D0252A26069751972B79
:1003B000036A400FE96E050E0320EA6E98C0EFFF56
:1003C000C0D7265204E19751400801E0196A97C04E
:1003D00099F0B0DF000CE824F76AF736F10FF66EFB
:1003E000030EF7260A00F550FA6E0800F550F96E74
:1003F00058036C0380039403256A1C6A05010351AA
:10040000010A000109E0030A0CE0010A0DE0220ADA
:1004100022E0030A32E058D0120E266E030E1C6E44
:1004200055D0290E266E52D0020E1C6E036A0501AD
:100430000251210FE96E000E0320EA6EEFCF25F086
:10044000036A2550F2CF97F0F29E0001E8DE97BFD5
:10045000F28E266E3BD0120E256E253C01D00BD0BD
:10046000036A2550F2CF97F0F29EA2DE97BFF28E7C
:10047000266E2CD002D061DF35D0D890050104352E
:10048000036AF2CF97F0F29E000180DE0900F5CFFB
:1004900003F097BFF28E256E253C01D013D0010EDC
:1004A0001C6ED89005010435036AF2CF97F0F29ED6
:1004B000000175DE0900F5CF03F097BFF28E266EBE
:1004C00005D002D03ADF0ED038DF0CD0050107533B
:1004D00005E12650065D02E206C526F0010E196E02
:1004E00000012EDF000C965304E1040E1F6ED9DECE
:1004F000C1D0050E1F6E996F800E986F010E976F19
:1005000097510F08D8A0B6D09A6B036A9751F2CFD3
:100510009EF0F29EDADD9EBFF28E000A51E0040EDC
:100520009A6FD8909735036AF2CF9EF0F29EF5DD70
:100530000900F5CF03F09EBFF28E9B6F03C09CF0C5
:100540009751080DF350010F016E040E036ED8B0E1
:10055000032A01C0E9FF03C0EAFF9BC0EFFF9751E8
:10056000080DF350020F016E040E036ED8B0032A7B
:1005700001C0E9FF03C0EAFF99C0ECFFED5298C04B
:10058000EFFFD8909735036AF2CF9EF0F29EC5DD5B
:100590000900F5CF03F09EBFF28E982703509923F0
:1005A000880E9D6F9CB19D819CB39D839751080DD2
:1005B000F3CF01F0040E01C0E9FFEA6E9DC0EFFF2A
:1005C000036A9751F2CF9EF0F29E6FDD9EBFF28ECE
:1005D000000A31E09A839751080DF350060F016E1F
:1005E000040E036ED8B0032A01C0E9FF03C0EAFF7E
:1005F00099C0ECFFED5298C0EFFFD8909735036A91
:10060000F2CF9EF0F29E71DD0900F5CF03F09EBFA0
:10061000F28E9827035099239751080DF350040F39
:10062000016E040E036ED8B0032A01C0E9FF03C0B7
:10063000EAFF400EEF6E9A51060802E10E0E9A6F25
:10064000036A9751F2CF9EF0F29E2FDD9EBFF28E8D
:10065000020801E09A89700E9725016E0F0E036E55
:10066000D8B0032A01C0E9FF03C0EAFF9AC0EFFF38
:10067000972B46D786EF03F00501015100010DE0ED
:10068000010A14E0020A1EE0060A27E0030A2CE031
:100690000E0A2CE0010A30E03DD01BC040F50501F8
:1006A000416B020E0001996F45DE36D00501022D27
:1006B00006D0010E1B160001996B3CDE02D0000132
:1006C0003CDE2AD00501022D05D01B820001996B6A
:1006D00031DE02D0000131DE1FD0020E196E02C5DC
:1006E00024F0996B27DE18D087DE16D01AC040F5AB
:1006F000010E996F1FDE10D005010251010808E3B9
:1007000002C51AF002C596F00001EDD6996B12DE13
:10071000000102D012DE00D0C0EF04F01AC096F043
:1007200005010151000107E00A0A0DE0010A2DE070
:100730000D0A3DE03ED00501406B416B020E000109
:10074000996FF8DD38D096531EE0010E965D036A6E
:10075000F2CF98F0F29E49DD98BFF28E016E05014E
:10076000045DD8A002D000010ED0036A0451270F07
:10077000E96E000E0320EA6EEFCF40F5010E000196
:10078000996FD8DD01D0D9DD16D096530EE0036AFB
:1007900005010451270FE96E000E0320EA6E02C521
:1007A000EFFF0001996BC6DD01D0C7DD04D024DE68
:1007B00002D0C3DD00D0C0EF04F096AF979196BF92
:1007C0009781969F97A110D0036A9651F2CF98F027
:1007D000F29E6BDC98BFF28E000A02E1000E01D09F
:1007E000010E016E10D00FD0036A9651F2CF98F02F
:1007F000F29E6BDC98BFF28E000A02E1000E01D07F
:10080000010E016E00D078EF04F096AF979196BF7D
:100810009781969F97A110D09651080DF350040F21
:10082000016E040E036ED8B0032A01C0E9FF03C0B5
:10083000EAFF880EEF6E09D09651080DF3CF01F054
:10084000040E01C0E9FFEA6EEF6A87EF04F096AF8D
:10085000979196BF9781969F97A110D09651080DBA
:10086000F350040F016E040E036ED8B0032A01C0CA
:10087000E9FF03C0EAFF840EEF6E0AD09651080D1F
:10088000F3CF01F0040E01C0E9FFEA6E840EEF6EB3
:100890008DEF04F096AF979196BF9781969F97A1A1
:1008A00010D09651080DF350040F016E040E036E24
:1008B000D8B0032A01C0E9FF03C0EAFFEFCF98F0E8
:1008C0000AD09651080DF3CF01F0040E01C0E9FFE4
:1008D000EA6EEFCF98F098AF02D098B502D0000E34
:1008E00001D0010E016E97EF04F004C596F065D7B4
:1008F000015229E005010151010A000105E0020A47
:1009000009E0030A0DE01DD004C596F07ED7996B6F
:1009100011DD19D004C596F09AD7996B0BDD13D071
:100920000501406B416B04C596F00001B3D701523D
:1009300004E0010E0501406F0001020E996FFADC20
:1009400002D0FBDC00D0C0EF04F00501015100D063
:100950000001F3DC00D0C0EF04F0196A050100517A
:100960007F0B000107E0010A06E0030A05E0230A05
:1009700004E004D081D6D2D6B8D7E7D7DEDC00D0E9
:10098000E7EF05F09651080DF3CF01F0040E01C01A
:10099000E9FFEA6EEFCF98F09751020806E198ADB3
:1009A00002D0976B02D0010E976F9751030812E1A6
:1009B000840E986F9651080DF350040F016E040ECB
:1009C000036ED8B0032A01C0E9FF03C0EAFF840E1A
:1009D000EF6E09D0972D03D0C80E986F04D09753AF
:1009E00002E1880E986F036A010E026E9651006E46
:1009F00005E0D89002360336002EFBD70250FF0ADE
:100A0000006EFF0E031A00501D1603501E16D890DC
:100A10009635036AF2CF9BF0F29E8DEC00F0090050
:100A2000F5CF03F09BBFF28E996F03C09AF09651F9
:100A3000080DF350010F016E040E036ED8B0032AA7
:100A400001C0E9FF03C0EAFF99C0EFFF9AB19881A6
:100A50009AB398839651080DF3CF01F0040E01C0AC
:100A6000E9FFEA6E98C0EFFF000C9651080DF350B5
:100A7000040F016E040E036ED8B0032A01C0E9FF13
:100A800003C0EAFFEFCF9AF09ABF5BD09651080DF2
:100A9000F350050F016E040E036ED8B0032A01C097
:100AA000E9FF03C0EAFF97C0EFFF9951020816E182
:100AB0009651080DF350040F016E040E036ED8B06A
:100AC000032A01C0E9FF03C0EAFFEFCF9AF09AAD15
:100AD00002D0996B02D0010E996F13D0995104087E
:100AE00010E19651080DF3CF01F0040E01C0E9FFAB
:100AF000EA6EEFCF9AF09AAD03D0010E996F01D054
:100B0000996B992D03D0C80E9A6F04D0995302E1C6
:100B1000880E9A6F98B19A8198B39A839651080D6E
:100B2000F350040F016E040E036ED8B0032A01C007
:100B3000E9FF03C0EAFF9AC0EFFF010E016E03D088
:100B400000D0000E016E000C965303E167EC01F03B
:100B50000FD0036A010E026E9651006E05E0D89028
:100B600002360336002EFBD702501D1203501E1210
:100B7000000C97C06EFF975303E0040E1F6E02D067
:100B8000020E1F6EC9EF05F01A6A196A24C097F0A9
:100B9000F0D7D6EF05F0965309E1192C03D0A0EC5D
:100BA00001F004D01950020801E1EED7000C6C30BE
:100BB000956F953395331F0E95176C523BE10401E9
:100BC00000513C0B34081BE1046B0001C6D6203CED
:100BD00005D0966B030E976FD5DE0ED0966B020E86
:100BE000976FD0DE2050FE0807E0966B986B20C010
:100BF00097F0040E996F39DF6D9819D004010051F8
:100C00003C0B040815E10001966B9EDF966B020E0B
:100C1000976FB8DE2050FE080AE0203C01D007D0D4
:100C2000966B986B20C097F0010E996F1EDF040140
:100C300020D000016C50040812E1FF0E206E966B6C
:100C4000AADF203C01D008D0966B986B20C097F0AB
:100C5000020E996F0ADF02D067EC01F009D06CB484
:100C600004D095C096F070DF03D095C096F093DF66
:100C7000040100016DEF06F01F5201E12FD0685210
:100C80002DE068A404D069A402D036EF01F06DA273
:100C900001D024D068A204D069A202D03BEF01F0B9
:100CA00068A004D069A002D076EF01F068A804D053
:100CB00069A802D08BEF01F068AC04D069AC02D017
:100CC00090EF01F068AA04D069AA02D093EF01F076
:100CD00068A604D069A602D06AD76896A19A32EFB6
:100CE00000F07E5301E057D0010E7E6F9280786B4A
:100CF00080B0782B772D18D0785313E17C2BD8B4A3
:100D00007D2B76517D5D0CE303E175517C5D08E33D
:100D1000020E776F8C849594010E7F6F020E716FB7
:100D200002D07D6B7C6B34D07951785D16E17F53B6
:100D300013E17C2BD8B47D2B74517D5D0DE303E171
:100D400073517C5D09E3010E776F7D6B7C6B71C025
:100D500031F0326A726F1FD01BD07F5318E1795384
:100D600013E1010E7125305C0BE00AE37151712B28
:100D7000036A310FE96E000E0320EA6E7CC0EFFFBC
:100D80007D6B010E7C6F03D07C2BD8B47D2B7F6BE9
:100D900078C079F07E6B9E9232EF00F06D6A696ADE
:100DA000080E6F6E94503009946E1F6A186AF2BE76
:100DB000188EF29E3FEC01F018BEF28E1E6A1D6A7C
:100DC00005EF07F0186AF2BE188EF29E3FEC01F0B4
:100DD00018BEF28E6D6A140E6F6E696A6D86010E12
:100DE0001F6EF6EF06F06DB601D0ECD71F2C0BD0BE
:100DF0006DBA09D0686A696AA08AC00EF212110E33
:100E0000696E020E1F6E000CC9D7EDDF1F5002087D
:100E1000FCE157EF07F0EA6A830EE96EEF500EE04F
:100E20000F0E016E006A002EFED7012EFBD78F0E2B
:100E3000006E002EFED70000EF2EF2D7000CC1503E
:100E4000C00B0F09C16EC2909698C69A949E93806B
:100E50009392010EC66E000EC76ED190800ED56EB5
:100E6000CD6A010E825D016E0134006E00360036DF
:100E7000F80E001600508011CA6E81C0CBFFB15031
:100E8000480BB16E070EB46E9250270E006E002E06
:100E9000FED700D0B450A19CB56AC00EF212726B9E
:100EA000010E776F786B796B7E6B7F6BADD7640EBD
:100EB000836FB1DF8C809590EAEF08F083C088F0F3
:100EC00085C08AF084C089F087C08CF086C08BF022
:100ED000F4D002C087F001C086F0186AF2BE188E06
:100EE000F29E83C096F0020E976F4CDD18BEF28E14
:0C0EF00086C001F087C002F073EF09F02B
:101000008351080DF350040F016E040E036ED8B027
:10101000032A01C0E9FF03C0EAFFEFCF8BF08BBFCB
:1010200049D08351080DF350060F016E040E036E74
:10103000D8B0032A01C0E9FF03C0EAFFECCF03F0F8
:10104000ED52EFCF8CF003C08DF08A6B896B8A5123
:10105000875D1EE303E18651895D1AE28CC08EF044
:101060008DC08FF084C0E9FF85C0EAFFEFCF90F01C
:101070008FC0EAFF8EC0E9FF90C0EFFF8C2BD8B481
:101080008D2B842BD8B4852B892BD8B48A2BDFD712
:10109000186AF2BE188EF29E83C096F087C098F050
:1010A00086C097F088C099F0E0DC18BEF28E01503F
:1010B00003D000D0000E016E000C8851080DF350D3
:1010C000020F016E040E036ED8B0032A01C0E9FFBF
:1010D00003C0EAFFECCF03F0ED52EFCF8DF003C079
:1010E0008EF08851080DF350010F016E040E036E4F
:1010F000D8B0032A01C0E9FF03C0EAFFEF50036A3A
:10110000906F03C091F08851080DF3CF01F0040EE9
:1011100001C0E9FFEA6EEFCF8FF08FB191818FB3FD
:10112000918391518C5D08E303E18B51905D04E262
:1011300091C08CF090C08BF0916B906B91518C5D55
:101140001AE303E18B51905D16E28DC0E9FF8EC07A
:10115000EAFFEFCF94F08AC0EAFF89C0E9FF94C0AC
:10116000EFFF892BD8B48A2B8D2BD8B48E2B902BE4
:10117000D8B4912BE3D78BC001F08CC002F069EF9B
:1011800007F0F86AD09E0D8EEA6AE96AC150C00B7A
:101190000F09C16E070EB46E1F6A216A040E226E1B
:1011A0000C0E236E266A400E306E716BE20E736F6A
:1011B000040E746F900E756F010E766F776F786BFB
:1011C000796B7E6B7F6B040E806FF00E816F010E6A
:1011D000826F35D608DE1A52D8B494D07253D8B480
:1011E00077D09D92010E836F856B310E846F876B74
:1011F000080E866F020E886F03DF0A0E836F0BDE08
:10120000010E836F856B390E846F876B080E866FB6
:10121000020E886FF5DE0A0E836FFDDD010E836F0F
:10122000856B410E846F876B080E866F020E886F88
:10123000E7DE0A0E836FEFDD010E836F856B490ECB
:10124000846F876B080E866F020E886FD9DE0A0ED8
:10125000836FE1DD010E836F856B510E846F876BA9
:10126000080E866F020E886FCBDE0A0E836FD3DD09
:10127000010E836F856B590E846F876B080E866F26
:10128000020E886FBDDE0A0E836FC5DD010E836F0F
:10129000856B610E846F876B080E866F020E886FF8
:1012A000AFDE0A0E836FB7DD010E836F856B690EAB
:1012B000846F876B080E866F020E886FA1DE8C9498
:1012C0009594726B640E836FA6DD7E6BCC6A9D82F3
:1012D0001DA418D0020E836F856B280E846F876B58
:1012E000080E866FEBD5285003E0020A07E00AD00B
:1012F0008C8295927E6BCC6A9D8204D08C92959262
:081300009D9200D067D70300A5
:020000040030CA
:0E000000240E3F1E008381000FC00FE00F4052
:00000001FF
;PIC18F4550
